:20000000A83D00207D71000001CA011001CA011001CA011001CA011001CA011001CA0110C5
:1C00200001CA011001CA011001CA011001CA011001CA011001CA01103FCA011082
:20003C00F0B52B4D05F12C0158C9ADF11C0D02AA58C20AC94FF0805682E80A0047688468BF
:20005C00D6F8D001C16820688847216821488A6B10408863206840F2F271416497F83C00B6
:20007C0097F83D10C0100DEB80008068084321684863684600F032F8D6F8D001397F46680C
:20009C0005EB8101BA698B68797F206855F821101943BB7F05EB8305AB690B430199B047BD
:2000BC000D490A1F106840F010001060086840F001000860A07D0027FF2802D0E07DFF28B3
:2000DC0000D11FB1086840F44040086007B0F0BD749300000DF8FFFF30100040DFF800F022
:0400FC00F9BF011037
:200100003C000000000000000000000034010000000000000000000001000000000000006D
:1C01200000000000000000000000000001000000000000000800000000000000BA
:20013C00340000000000000000000000680100000000000000000000010000000000000005
:14015C00010000000000000000000000080000000000000086
:2001700030000000000000000000000098010000040000000000000001000000FFFFFFFFA5
:10019000FF00000001000000080000000000000057
:2001A0002C0000000000000000000000C4010000040000000000000001000000FFFFFFFF4D
:0C01C000FFFFFFFF08000000000000002F
:2001CC0034050000E401000099A1011095A70110A5C2011009B2011045B80110000000000B
:0801EC00000000002F000000DC
:2001F400280000000000000000000000140200000000000000000000FFFFFFFF00000000B1
:080214000800000000000000DA
:20021C00300500003002000069C201106DC101101FC2011095BA011000000000000000008E
:04023C002D00000091
:20024000300500005402000075C20110A9B601109DBF011049B601100000000000000000DE
:040260002E0000006C
:200264002400000000000000000000008002000000000000000000000000000008000000CC
:040284000000000076
:20028800240000000000000000000000A40200000000000000000000000000000800000084
:0402A8000000000052
:2002AC00240000000000000000000000C8020000000000000100000000000000080000003B
:0402CC00000000002E
:2002D00000000000B810002004000000000000000000000020000000700100003000000061
:2002F0001C020000C01000200400000000000000000000000C000000300400001800000084
:2003100040020000C810002004000000000000000000000024000000480400001800000007
:2003300000000000D010002004000000000000000000000010000000A00100002C000000CC
:20035000CC010000D81000200400000000000000000000002000000064020000240000000A
:20037000FFFFFFFFE010002004000000000000000000000028000000880200002400000087
:20039000FFFFFFFFE8100020040000000000000000000000580000003C010000340000006C
:2003B000FFFFFFFFF010002004000000000000000000000010000000600400001800000081
:2003D000FFFFFFFFF81000200400000000000000000000001C000000AC02000024000000F7
:2003F000FFFFFFFF0011002004000000000000000000000038000000F40100002800000067
:20041000FFFFFFFF0811002004000000000000000000000054000000000100003C00000002
:1804300018000000000000000000000040040000080000000000000050
:1804480018000000000000000000000058040000080000000000000020
:18046000180000000000000000000000700400000800000000000000F0
:0804780001000000B095000036
:0404800006F0F0BAD8
:040484000100000073
:0404880000000E0062
:04048C0000000F005D
:040490003200000036
:040494000100000063
:0404980060100020D0
:04049C00000200005A
:0404A0000000000058
:0404A40001CA011078
:0404A8000000000050
:0404AC00000000004C
:0404B0000800000040
:0404B4000000230021
:0404B800200F0020F1
:0404BC00010000003B
:0404C0007810002090
:0404C400080000002C
:0404C8000000000030
:0404CC00000000002C
:0404D0000000000028
:0404D4000000000024
:0404D8000000000020
:0404DC00010000001B
:0404E000880F002061
:0404E400060000000E
:0404E800010000000F
:0404EC00440E00209A
:0404F0000000000008
:0404F4000000000004
:0404F80000020000FE
:0404FC0000000000FC
:02050000704742
:020502002900CE
:020504000100F4
:020506002500CE
:020508002D00C4
:02050A002E00C1
:02050C002F00BE
:02050E000100EA
:0105100001E9
:080514000300000084950000C3
:08051C000000000000000000D7
:0405240000000100D2
:0405280000000300CC
:04052C0087C401106F
:04053000380500008A
:040534003805000086
:0405380000000000BF
:04053C00900000002B
:040540009000000027
:0405440000000000B3
:040548007810002007
:04054C00AD8C000072
:040550002000000087
:0405540024950000EA
:0405580054940000B7
:04055C000DC30110BA
:04056000B778000068
:040564002F7D0000E7
:0405680099C801101D
:04056C009BC8011017
:040570000000000087
:0405740047950000A7
:0405780004930000E8
:04057C001C930000CC
:04058000EC920000F9
:0205840008006D
:0205860009006A
:02058800010070
:02058A0000006F
:01058C00016D
:040590000000000067
:040594000000000063
:04059800000000005F
:04059C00000000005B
:0405A0002F90000098
:0405A40011780000CA
:0405A8005D8500006D
:0405AC00017C0000CE
:0405B000FD7C0000CE
:0405B400D17F0000F3
:0405B800A56000003A
:0405BC001D8E000090
:0405C000516700007F
:0405C40011C8011049
:0405C80021C8011035
:0405CC000800000023
:0405D0002400000003
:0405D400180000000B
:0405D80028000000F7
:0405DC0020000000FB
:0405E0003C000000DB
:0405E4000C00000007
:0405E80034000000DB
:2005EC002DE9F04F0820ADF1740DADF820000120ADF8220008A807F0DDFBDB4C9DF8240047
:20060C0020700A9804F144050021E061284608F0B1FDD6494FF47A72002304F150002562AB
:20062C0006F0F6FC1520102107F07CFB16204FF4C87107F077FB19204FF42F7107F072FB57
:20064C001A20002107F06EFBDC494FF47A62002304F1740006F0DCFCE04D05F1180005F104
:20066C000C0104F0E1FFDE49A86008F090FCDD4E4FF4E0213246521E07F0B4FDA8684FF488
:20068C00E021324607F0AEFDD74EA8684FF0C0513246521E07F0A6FDA8684FF0C051324654
:2006AC0007F0A0FDDC4905F12400C822002306F0AFFCDC486860DC4D05F1080105F114008F
:2006CC0004F0B2FF0621002206466E6007F046F830460721002207F041F8D44E00204FF45C
:2006EC00FA720023287005F12000314606F090FC05F144004FF4FA720123314606F088FCBA
:20070C0003200DF16E018DF86E004FF0804006F0EFFBA06100270097019739460297D5A384
:20072C0003970A46049707F081FED5484FF6FF790821A4F83A90D14E0760B01C0170022064
:20074C004FF47A6107F0EEFA03204FF47A6107F0E9FAC949032006F06DFFB8461597012013
:20076C008DF86B7003238DF86A0004218DF86D8015AA8DF86C304FF4816007F097F84FF494
:20078C00806001210DF16A0207F090F840F2024001210DF16B0207F089F840F20340012152
:2007AC001BAA07F083F840F2064001210DF16D0207F07CF8082007F0DDFE071C09D002216B
:2007CC00112208F01EFB07F0E5FED24A394606F06DFF94F800A00A2007F0CCFE071C0CD0DC
:2007EC000221122208F00DFB504607F045FE387207F0D0FE394607F0C9FC032007F0ACF95D
:20080C00042007F0A9F904F1280096F801B096F802A0B060182007F0ADFE071C1AD0042167
:20082C00424608F013FA584607F026FE38720820787287F80AA006F11603FB6006F12602F7
:20084C003A6106F10C01796107F0A4FEC84A394606F02CFF0C2007F08DFE071C0BD00121FA
:20086C00042208F0CEFA04F13C00B86007F092FE394607F08BFC0120102107F0A1F90220B4
:20088C00102107F09DF9464600960196029603960496A069B1A34146424607F0C7FD686813
:2008AC000721424606F05AFFB2484FF4967106F08DFF04F1E80A022068700820ADF81800A1
:2008CC000A27ADF81A704FF0FF36079606A807F071FA002840F0EE83404614900827ADF8C4
:2008EC002C700926ADF82E600BA807F063FA0D9D0028149540F0DE83BDF83000102807D1E6
:20090C0020789DF83210884202D1284600F062FC1498002800F0CE83284608F055F8C9E38F
:20092C00206A054608F022FC854208BF474602D0876808F031F8381CBB4600F0BB83388880
:20094C00E189801E00F05983801E00F0FD82001F00F0D28208380BD0103800F0A283203877
:20096C0000F09083A3E3C046080200207D8700002079BD78002800F0B782401E00F0C781F9
:20098C00801E1DD0401E40F09283E0782909C0F0AB82012800F08B836778002F00F0878387
:2009AC00A178A0698F4200F31A820221072208F036FA47464646454678E2C0462D8900007B
:2009CC00E0792A0944D3A669021C0FD0521E2FD0521E23D0521E1CD03AE0C046900E002050
:2009EC00BD8000000E0005800E0000100120E071084607F089FF00280CBFC0A3BBA3404684
:200A0C000090474601974246029241460391049719E04046B1A30DE0CD8B00000320ACA3B9
:200A2C0008E0C046358F0000840D0020096B00000220A3A3E0714746009742460192414654
:200A4C000291039704923046072107F0EFFCE0796909C0F02C83E589A369002800F0FA8011
:200A6C00401E00F08980401E0CD0401E00F018811DE3C0460C00C046B98F0000300700203B
:200A8C003C0200202079032840F01183A07A012800F00D83CA48667A21780768002E3BD06E
:200AAC002A46002F08BF404606D040460090122301200146B847A36900280F9000F0F7827A
:200ACC0040464746009046464546019706213A46029618460395B6A3049707F0A7FCB948F4
:200AEC000126AF210F9DC088ADF83A604346ADF83800122229700EA88DF8407021788DF884
:200B0C00413006F083F9051C21D00EA8122107F013FF19E0E58D0000AA48C0880A22ADF86C
:200B2C005C0017A806F072F905464046009047460197464602964346039342460492A0693D
:200B4C000621CBA307F072FC002D40F0B0820121607AA17280F001006072A8E2424C452031
:200B6C0043656E7472616C207465737400C046C0D18F0000C80D0020284607F0C5FE002855
:200B8C0044D118460521424608F049F9E089054606F01AFC002834D0284607F0B5FE071CC7
:200BAC0024D1B748C0884FF6FF71814229D10820ADF844000427ADF846702426129611A839
:200BCC0007F0F8F800280CBF13984046AC490860B8B1C8494246134606F01AFAA8484FF409
:200BEC007A760146C5800F468E8005E0386808F014FA4FF47A70B88038684FF47A7106F056
:200C0C00E5FD474639A34646454617E0284606F065F84046009047460197464602964546C4
:200C2C00039543460493A06905213A46C2A307F0FDFBE079012840F03A8230A307214046FE
:200C4C00009001970296039542460492A06907F0EDFB2CE2404647460090464645460197CA
:200C6C0004213A46029618460395AFA3049707F0DDFBA07958B1401E40F0198210204FF4BB
:200C8C00C8714FF42F7206F02BFE404606E05020A0214FF4167206F023FE0120A07106E273
:200CAC0006F022FA05202071A0690121072208F0B6F84746464645460121CCA3BFE7C04685
:200CCC003E526561642F777269746520726571003E446973636F6E6E656374003E506172E3
:200CEC00616D207570642072657100C03E53746F70205253534920706F6C6C003E53746107
:200D0C007274205253534920706F6C6C00C0E078290959D26809C0F0CA81A178002900F096
:200D2C00E6806078002800F0C28108464101A1EB8000504410F8086CC51FBE4802272771B7
:200D4C0008F069F907F0CAF98DF8600047468DF862708DF8636040468DF86100296819ABA1
:200D6C001960AA889A80BC4A18A8092106F05CFFA0690421072208F052F8A669284605F056
:200D8C005DFF03464046009045460197022102953A4603973046049507F048FB4046009036
:200DAC004646019704210295B8A303964CE7C0465772697465207265712073656E7400C00D
:200DCC00A010002034020020012800F070816778002F00F06C81A178A0698F4252DD491C65
:200DEC0047460091464645460197ABA302963A4603950121049707F019FBA178A5694801E4
:200E0C00A0EB81005044153005F018FF0346404600900196022102973A4603962846049701
:200E2C0007F004FBA1784801A0EB810050440090019602974546039543460493A0693A4622
:200E4C000321B3A307F0F2FA4046009001960297039543460493A06907213A46A7A307F039
:200E6C00E5FA01202071A078401CA0701FE1C04652656164207265712073656E7400C04687
:200E8C003C0200200121072207F0C9FF6078009047460197464602964546039543460493EA
:200EAC00A06901213A46B9A307F0C0FA4046009001970296039543460493A06906213A46C0
:200ECC00BBA307F0B3FA4046009001970296039543460493A06907213A46B1A307F0A6FA6A
:200EEC00012020714046C0E76809C0F0E08004F05DFDDCE0E18B00007D68E8884FF6FF7106
:200F0C00814200F0D48006F05FFA002800F0CF802868A98806F05AFCE988A94B41F205401E
:200F2C00424606F091FAC2E0506172616D207570642072657100C046525353492043616EBF
:200F4C0063656C6C656400C078684546894606781695082007F00EFB051C0CD005210A465E
:200F6C0007F074FE07F016FB16A90423954A0091294606F0B9FB169D93489349B5FBF0F08B
:200F8C0048432D1ADEB14046009046460196434602934246039241460491A06978A304210B
:200FAC0007F044FA00954046019002964346039342460492A069052170A307F037FA1020D5
:200FCC0007F0D8FA061C0ED00121132207F019FFA6F808904046B072F56007F0DBFA7B4A12
:200FEC00314606F063FB786849E0C046446973636F6E6E656374696E67007A68BE78A069A2
:20100C001178002E2AD0012E16D0022E0FD0032E34D151B955A341460091464601964546F1
:20102C00029542460392049623E04BA309E029BB45A3F0E77C020020002908BF3EA3EAD0B0
:20104C0038A30091414601914646029645460395424604920DE0C046D78F00004146009129
:20106C004646019645460295CDF80C8029A3CDF810800621324607F0D9F97A68104607F016
:20108C007FFC14E006F030F811E0C046436F6E6E656374696E6700C0446576696365202563
:2010AC006400786800F096F8786807F08DFC584607F066FC206A08F055F800283FF430AC05
:2010CC00A0894108FFF4F9AB20F00100A081404847464646678204222682394604F080FE80
:2010EC000120A58A217860710222281FADF85E000DF15E0005F08AFEFFF7DFBB3E52494733
:20110C00485420746F20636F6E6E65637400C046257300C050616972696E67207374617218
:20112C007465640050616972696E67206661696C3A20256400C046C050616972696E67204D
:20114C007375636365737300426F6E64696E67207375636365737300426E642073617665CD
:20116C00206661696C3A20256400C046426F6E642073617665207375636300C0256400C095
:20118C0050617373636F64653A00C0464465766963657320666F756E6420256400C046C063
:2011AC003E524947485420746F207363616E00C03C4C45465420746F2062726F77736500C3
:2011CC006F8F0000FB8F000040420F00D78D0000340200202DE9F04F0446904D207829797A
:2011EC00ADF11C0D913800F0A3831F3800F05682203840F0B683A078D5F818800FF20C29AA
:20120C00002800F00B82401E00F0AC80001F0FF2E42A26D0401E00F0AF81401E03D0801F31
:20122C0000F0CE809DE3032940F09B83E07870B9E08807F0EFF9B2A20CCA03F0F5F905F0A2
:20124C00BDFF0090A7A300200246019003E0009000220192BCA30292039204210492404602
:20126C007DE36078002862D103206789AE8D28714FF0010BEF8185F80AB02EB905F15000C9
:20128C0007F0C9FED5F81880687828B905F1E80904F1040A002613E004F1040A05F1E80971
:2012AC000026044609F1150750463946062207F019F928B1641E07F11C0706F10106F3D11E
:2012CC0040465946072207F0AAFD7001A0EB860048440090002701973C4602940394049472
:2012EC00A86959462246A3A73B4607F09FF8AE69504605F0A3FC0090022101943B460294D1
:20130C00224603943046049407F090F800940194029403940494A869B5A30321224607F05B
:20132C0085F8B6A3EC7122460721104611E34FF6FE70E88100262E710421324640466E71B1
:20134C0007F06DFD00960196029603960496A869AEA30221324607F069F86078534603213E
:20136C0000907EE10024EC70404601210722AC7007F055FD68780090019402942246039224
:20138C000494A869BCA3012107F050F804202871687850B1224600920192029203920492EE
:2013AC00A869BAA3062107F041F8224600920192029203920492A8694B46072180464EE74B
:2013CC002269207B1118491E2DE012F8017B57B31078022803D0032818BF3A4423D17F1E18
:2013EC00521CFFB2022F1BDB7810914218D91378F02B02D15378AF2B06D0BF1E401E02F12D
:20140C000202FFB2F1D10BE001200FE03E524947485420746F207363616E00C008020020E0
:20142C00012F08BF521C9142CFD800206F7828B394F80490082F04F105081FDA381C0CD05D
:20144C0005F1FD0A064640465146062207F04AF8A0B1761E0AF11C0AF5D142461368780171
:20146C00A0EB87002818E83000F115010B6092888A807E1C80F81490F7B26F70002F00F003
:20148C00708205F1E808002004F1050BB94608F1150A069058465146062207F023F80028FF
:2014AC005DD12269237B256910469918491E1B185B1EAB4253D912F8017B87B11578082D88
:2014CC0003D0092D18BF3A4409D17F1E521CFFB2022F01DB914217D8012F08BF521C914205
:2014EC00E9D83CE05061725570643A202564206D7300C046526561736F6E3A20256400C0C3
:20150C00000000000000F43F069D10F8017B1FB30178082918BF09291FD16A017F1E401C8C
:20152C00A2EB850208EB0201CF760021834216D98F4212DD10F8016B02EB010C491CC9B26D
:20154C0008F80C60F2E7C046506172616D206572726F723A2025640038188342D5D80698B6
:20156C00B9F101090AF11C0A00F10100069091D1F7E1C046257300C000274FF6FE703E460C
:20158C00E88104222E71314605F12C006F7104F027FC6F62A088AE7205F0A0FBA8690121A5
:2015AC00072207F03CFC00970197029703970497A869BFA30121324606F038FFA0790090E7
:2015CC0001973446029403940494A869534602213A4606F02BFF00943A46019202920392EB
:2015EC000492A8694B46072106F020FFEE71B8E1436F6E6E656374656400C0463E50617278
:20160C00616D207570642072657100C0436F6E6E656374204661696C656400C06089002661
:20162C00A88237460096BAA3019731460297324603974046049706F0F9FEAE69E01C05F034
:20164C00FDFA3C46009703460194012102943A4603943046049406F0E9FE3E46B1A30221DB
:20166C00009634460194029403940494A869324606F0DCFE4B4656E64465766963657320EB
:20168C00666F756E6420256400C046C03C4C45465420746F2062726F77736500032940F03B
:2016AC0030816178A869162900F0208121790B2900F00581012903D1217A0A2900F0FF8034
:2016CC002179132900F0E580012903D1227A122A00F0DF807E2900F0D8807F29AEA300F0D6
:2016EC00D2806F79002F00F00C81012F00F09C80022F5BD0032F40F00481092904D12789C2
:20170C0027BB61781A2903D02179012940F0F980696A002700913E46019793A302963A468A
:20172C0003960421049606F081FEA88D0090E88D0190288E0290688E03900496A8698FA357
:20174C0005213A4606F072FEAE726BE0268900239E4240F3D680E0686A6AC3EBC3014018E5
:20176C00C01C8178F23917D0891E0FD0091F07D0891F19D14178007800EB0120688610E044
:20178C004178007800EB012028860AE04178007800EB0120E88504E04178007800EB01209D
:2017AC00A885521C6A6226895B1CD1E72079072812D127895FB1E1684A78087800EB0220D5
:2017CC0028828878CA7800EB022068822079072802D161781A2902D0012840F092802E8A6E
:2017EC00B5F81290002E00F08C80B5F80E8095F800A0102006F0BEFE071C12D0032132229D
:20180C0007F024FAA7F808807E815046A7F80C9006F032FEB87306F0BDFE844A394605F06C
:20182C0045FF03266E716CE02179032969D117210091002701973A46029203920321049219
:20184C0006F0F4FD7A48EE89008895F80080ADF81400142006F08EFE071C12D00321062207
:20186C0007F0F4F93E81022005A9B8724046F96006F002FE387406F08DFE6E4A394605F091
:20188C0015FF0226CEE7228901E0227A46A303212FE0012907D0297A47A3491CC9B22972FE
:2018AC00491EC9B215E0217B48A31A460DE0C046446973636F6E6E656374656400C021793E
:2018CC00012904D0E168097845A2134601E0217B48A30091002101910A46029203920621A8
:2018EC00049206F0A3FD0020A8720AE0227946A3062100920022019202920392049206F0E5
:20190C0095FD217904F1080007F016F829E0C046424C452043656E7472616C2074657374E2
:20192C0000C046C0496E697469616C697A65640060780E2815D1A08841F20542824210D124
:20194C0003290ED1A06890F90300002233A30521404200900192029203920492A86906F053
:20196C0065FD07B0BDE8F08F25642050726F66696C6520466F756E642000C0463078253065
:20198C0034782C3078253034782C3078253034782C307825303478004D54552053697A655F
:2019AC003A20256400C046C046432056696F6C617465643A202564005772697465207365AB
:2019CC006E743A2030782530327800C05772697465204572726F722030782530327800C09C
:2019EC0052656164207273703A2030782530327800C046C052656164204572726F7220302D
:201A0C00782530327800C0464154542052737020647270656420256400C046C05253534920
:201A2C00202D64423A20256400C046C0EF8F0000B4940000F58F00002DE9F84F8046DD486C
:201A4C000122A0F130010A60D7490F68002FFCD0D74CD64AC02704F1040B1760DBF8001011
:201A6C00890804D22168090C41F0F00100E07221E34AE44D4FF0000A82F85412A5F1D407C8
:201A8C00C0F800A0A66838683146C0F304601628A8BF203800EB2170401C162805DA10F1B3
:201AAC000A0FB8BF6FF0090000E01520E64AE74F00F01F0040F4F8501080386880083ABF6B
:201ACC00E348C0F800A041F04061E24AA946C80E8F0EA9F13C0580F0010000F0010010606A
:201AEC0087F0010000F0010090602868C0F38367C0F38F21B00C22D246F3072000280BD5D9
:201B0C0042425046490805D17F0806BF0127391C4FF6FF71521EF5D1002810DD4FF6FF72F9
:201B2C00490041F001018A4207D27F0047F001070F2F92BF01210F27111C401EF0D141EA5C
:201B4C000741182005F052FF28682F68C34DC0F3870140F2FF32534607F0030041EA0021FF
:201B6C0088B22C210090A5F1400005F02DFA4D46A5F110073868C0F30D011C2005F036FF49
:201B8C00B54957F8080C014000F07C400143142005F02CFF57F80C1C01F47C000904090C49
:201BAC000143102005F022FF57F8042CDBF80010C2F30350C2F30343490812D221680C055B
:201BCC0010EB247003D41028A8BF0F2000E05046090413EB217303D4102BA8BF0F2300E025
:201BEC00534643EA001302F47F4002F0FF01B8F1220F40EA034041EA000124BF02F080424F
:201C0C0011430C2005F0F2FEB8F1220F32BF01202868C0F30070914CB8F1220F4FEA400084
:201C2C0040F0200084F8090126BF2868C0F3407001208B4FB8F1200F40F0100084F8090151
:201C4C0038BF514606D33968C80C00F44070C1F384510143282005F0C9FEB8F1200F26BF6A
:201C6C003868C0F301505046B8F1220F4FEA400040F0600084F80C0126BF2868C0F3C0606A
:201C8C005046B8F1220F4FEAC00040F0800084F8010126BF2868C0F345505046B8F1200F76
:201CAC004FEA800040F47C40A4F89C0138BF6D490AD3386801038A15920501F47C1100F060
:201CCC000F00114341EA0031082005F08FFE4F464FF480002060A7F1D000816D40F20F22FE
:201CEC006FF31F418A4213D901680068C1F30363C0F3034003B15B1E072805D006280EBF51
:201D0C000720801C00F00F003D4943EA00100870C6F381435B1E02D05B1E27D022E03968DF
:201D2C00880C1FD24FF4804020604F48D0F802204B0A03F0800322F08F021343C1F3033261
:201D4C001A43C0F80220D0F801300A0A62F30303C0F80130026801F0E70322F0E70243EA82
:201D6C00020102E04FF0004120460160DBF80000C0F3C0030BB94020A0624FF40070206485
:201D8C002868C0F3C14040F0300084F8C800C6F381503A4E4FF04008B0B3401E0CD0401EBB
:201DAC0029D0022128E0C0469402224300600C40AC3F005040100940012006F0E7FC05462D
:201DCC000420294604F0FCFF042006F0DFFC8542FAD12648056825F07F4006F033F83046A8
:201DEC0014300068036807214FF06022280E98474FF4806020600321042004F0E1FF0AE019
:201E0C00026008408C1300500420012104F0D8FF174806F017F8203F38681649164B47F6AC
:201E2C00180500F03F0084F8CB0F32460D8018681068C168022088471248114FC0F80080EB
:201E4C0001213960BDE8F88F6E6208400000094094042A4300002043FCFCFC0040A00C40A6
:201E6C009813005000803F400A600840A83F0050BD37860070B00C402C200940A001001047
:201E8C009404604200600C402DE9F04F09AFADF13C0D08900A92388809911E46ADF81800AD
:201EAC00101C08BF002000F08481002700F101094FF0FF3A4FF0010BB8466CE1252940F060
:201ECC0063811078521C0A922D2818BFADF8068005D15846551CADF8060010780A9530281A
:201EEC001CBF4246434605D10A9908785A465B46491C0A912A28CDF80080554616D13068FF
:201F0C0004930A99CDF808A0C01C4B1C20F00300001D306050F8044C0A93002C0878009496
:201F2C0018D5ADF806B06442009413E044460AE0610001EBC40140180A99A0F1300408785A
:201F4C000094491C0A91302801DB3A28F0DBCDF808A004932E282BD10A9908782A2801F1C3
:201F6C0001010A9111D13068CDF80880C01C20F00300001D306050F8045C002D48BF4546EE
:201F8C0008782B46491C0A9111E0454643460AE0690001EBC50140180A99A0F130050878F9
:201FAC002B46491C0A91302801DB3A28F0DB02930AB1224604926C2804D04C2818BFADF89D
:201FCC00048005D10A990878ADF804B0491C0A910BA9CDF80C800FAB07916428059300F0B4
:201FEC008B80692800F08880BDF818C0752872D078286ED06F286AD0702850D063283DD0D6
:20200C0073281ED009980A990128A1F101010A9115D96B490C68B5F1FF3F03D0A84288BF91
:20202C006D1C00D8099D029508A80AA932466B46A047C7190A99039801F1010974E040468F
:20204C002AE030680A99C01C20F00300001D306050F8040CBCF1000F01F10109014608B97B
:20206C0055A00146079106F0E7FD0390B5F1FF3F5BD0A842C4BF281C039056E03068C01C16
:20208C0020F00300001D306010F8040C5D468DF82C000A990395584601F1010945E00820E6
:2020AC0035680490E81C20F00300001D306050F8041C082210230FA804F028F8401E07909A
:2020CC00402101700A99079801F1010929E0082302E0102300E00A230A99306801F1010957
:2020EC00C01C20F00300001D306050F8041CAA42BCBF2A1C049210E00A99306801F1010966
:20210C00C01C20F00300001D306050F8041CAA42BCBF2A1C04926FF009030FA803F0F6FF62
:20212C000790059D281A0390009C241ABDF8065000945DB906E008A8202109AA06F0D4F8AA
:20214C00009C7F1C641E0094F5D503980546401E039075B9BDF80600E8B10098401E00907D
:20216C0019D408A8202109AA06F0BEF800987F1CF4E70798411C0791017809AA08A806F0A2
:20218C00B3F803987F1CE1E708A809AA06F0ACF87F1C09F101094A460A9812F8011C401C39
:2021AC0000290A907FF48AAE089808B14146017038460FB0BDE8F08F286E756C6C2900C027
:2021CC00BC9500002DE9FE43974C0F460546F80B80F00081B80880F0ED80B80F6ED2A07A16
:2021EC0000284FD138094FD30025012665708F48267206F01BFE8E492A4604F1600006F0F7
:20220C00FFFE6079012821D1A079F8B9DFF82482E669D4F81490D8F8000078B106F0E4FCEC
:20222C00A0EB09004346000B8619A0611868B6EBC01F24BF281CE0610AD2E66104F1BC008E
:20224C004FF0005106F06CFC284619E06671284640F60903A38694F8413003F0F00343F057
:20226C00010384F84130E58694F840302A4603F0F00384F84030704EA26304F1340131603A
:20228C00606118E0380914D2B80BC0F0C48004F1240006F0BEFE061C08D0706830B1756840
:2022AC00F068B6F91C1000222023A84727F40057B1E00020A07227F00807ACE0A968088803
:2022CC0040F60208804507D00A8B4FF61F60104040F43470088306E00A8A4FF61F6010407C
:2022EC0040F4347008826069D0B1042006F04EFAB0B106F079FC6169814226BF401A401ECE
:20230C00401A000BE860688AE968401840F6C411E860814203D340F2EE22824200D9E96055
:20232C00AE699EB14548B04210D094F8410010F00F0F0BD1698C08F10700884206D1284601
:20234C006FF4807100224FF00073B0473C4904F16000002206F054FEA07958B10220ADF825
:20236C000000684605F0EAFF0026A671BDF80800A4F85C000120607020794FF00008401CA6
:20238C00207104F1200084F8078006F042FE002808BF47F0020702D0192006F0A7FC6E69A8
:2023AC002EB1414628464FF080630A46B04727F0005730E004F12C05284606F02AFE02F0B2
:2023CC002DFA284606F025FE27F0020708B147F0020720E006F0C2FE014604F1280006F01A
:2023EC0018FE0646B569A80810D27EB125EA0500B061084606F0AEFE706850B12A46F068DA
:20240C00B6F91C1075680023A84702E0084606F0A1FE27F4804727B104F1BC00394606F041
:20242C007FFBBDE8FE83C046B8090020ED500000CD840000881D00200010044033560000D9
:20244C001D4200002DE9F04F0128ADF1140D40F0F280DFF81492D9F8DC00012840F0E98046
:20246C000220C9F8DC0006F071FE0290012004F0F3FD20B101210646C9F8DC10D5E006F0FE
:20248C0061FE03906E484FF00008C0F80080012006F07CF9012818BFCDF8008004D14046DD
:2024AC0004F05AFA0120009066486E4CC0F800801934D4F8FF0F112006F0FCFC00280CBF3E
:2024CC0046460126102006F0F5FC08B146F002060F2006F0EFFC08B146F004060B2006F005
:2024EC00E9FC30B1584800685849006B0246088890470A2006F0DEFC0028404618BF0120A7
:20250C004FF0805B0BF5DC7528B128685049006B0246088890474F48012707602868806989
:20252C00014646F0200088474B48076006F0BCFC00F001010191400815D2484806F030FC16
:20254C008246BAF1040FF8D0BAF1010F06D1DBF8D801406802464148032190474049086876
:20256C0020F003000860404600F080F82868D4F8FF1F806B8047019801280ED0BAF1010F5F
:20258C0006D1DBF8D801406802463448394690473349086840F0030008602A4807602868FA
:2025AC0040690146304688470B2006F083FC28B128682649C06A0246088890470A2006F069
:2025CC0079FC28B128682249C06A024608889047204807600322C9F8DC201F4BC3F8008077
:2025EC002868406B0146304688470128F8D1042004F032FD124807601A48D4F8FF1F016859
:20260C008909FCD30098012802D1384604F0A4F906F044FC082004F01FFD06460398C9F894
:20262C00DC7006F08BFD04F031F8029806F082FD02E0042600E00126304605B0BDE8F08F36
:20264C000C40094000022243B8010010829200007E9200002820086080010443004003408A
:20266C002422084014100940E00B00202DE9F84FDFF8ECB10746ABF13500DFF8D8A10068A1
:20268C00800880F0D78005F045FE79490831D1F8008000254FEA28725FEA985102F1010243
:2026AC000AD2C0F13E0110F10A0F4FEAE101D8BF08218A42B8BF0A1C634BD3F87C11C1F32A
:2026CC0004611629A8BF20391B68C3F30443162BA8BF203B99465118162905DA11F10A0F86
:2026EC00B8BF6FF0090100E01521584B584E01F01F0242F4F8521A80326812F0030F18BFDE
:20270C000125D20828BF45F002050FB145F00405524692F90730C31A052B04DA9379AB424E
:20272C0008BF918866D0DFF830E10F28A0F10F0C25DB0CEB0013A3F1F00C4FEA2C26072E52
:20274C0088BF07263446062C88BF06245EF82470042303EB84037446E358DB1B03F0FF0475
:20276C00EF0824BFC3F307273C44AF0824BFC3F307473C446F0828BF04EB136401E0002428
:20278C0026465EF826E0EF080EF0FF0324BFCEF307273B44AF0824BFCEF307473B446F087E
:2027AC0028BF03EB1E63A4B2ACEB0626A9EB01017443002904F1800403EB1423D8BF0121D1
:2027CC00342408F0FF074C43A1B27943B1FBF3F14FF6FF738B4238BF191C802889B29180C5
:2027EC0005DA10F1800FB8BF6FF07F0000E07F20D0719571194800681F2910604FF0000083
:20280C0008D340F2FF128A4206D24908401C8A42FBD301E01F219180124F0F39090940EA8C
:20282C00C10047EA0001CBF8FB1F0026CBF8FF6FBDE8F88F0C490D4F524608200F60921DAA
:20284C001070BDE8F88FC0463C1100506E620840242208408C1D00209C130050082009403E
:20286C003500094000E7A48030100940FDFDA400AC3F00502DE9F0411C4615468C4208BFC8
:20288C00854282BF00230022E5E0002C08BF002D0AD100290EBF00286FF000006FF0000142
:2028AC0000F0E1F8BDE8F0815FF000085FF0000E002C08BF8D429CBF2C1C0025070C47EAAB
:2028CC0001470E0CB44208BFBD429EBF5FEA044444EA15445FEA0545070A47EA01670E0A04
:2028EC00B44208BFBD429EBF5FEA042444EA15645FEA0525470847EAC1774E08B44208BF5D
:20290C00BD4200F29380870847EA81778E08B44208BFBD427CD8C70847EA4177CE08B442C5
:20292C0008BFBD4266D8070947EA01770E09B44208BFBD4250D8470947EAC1674E09B442DD
:20294C0008BFBD423AD8870947EA81678E09B44208BFBD4224D8C70947EA4167CE09B44225
:20296C0008BFBD420DD8E60146EA5566EF01B14208BFB84201D3C01BB14158EB08085EEBED
:20298C000E0EA60146EA95664FEA8517B14208BFB84201D3C01BB14158EB08084EEB0E0E6B
:2029AC00660146EAD5666F01B14208BFB84201D3C01BB14158EB08084EEB0E0E260146EA75
:2029CC0015762F01B14208BFB84201D3C01BB14158EB08085EEB0E0EE60046EA5576EF0053
:2029EC00B14208BFB84201D3C01BB14158EB08084EEB0E0EA60046EA9576AF00B14208BF84
:202A0C00B84201D3C01BB14158EB08084EEB0E0E660046EAD5766F00B14208BFB84201D38F
:202A2C00C01BB14158EB08085EEB0E0EA14208BFA84201D3401BA14158EB08085EEB0E0EA8
:202A4C00A34208BFAA423EBF2D0A45EA0465240A89D3734642461E4617460B46024631466A
:202A6C003846BDE8F08170472DE9F04F754F1E46ADF1340D4FEA960900903D68019109F10A
:202A8C000200029205EB80010391011805EB81010491710821F00101091D0A1805EB820326
:202AAC008218059305EB8202079226F0030202F1080808EB000205EB82038A18089382186C
:202ACC0005EB82020992C6F39C029200083200EB420205EB820389180A93831805EB810BBF
:202AEC0005EB8303401805EB800408EB020005EB8000069038680B93C6F3990189000A0168
:202B0C000021803203F06CF94749DFF820A109682846AAF1880290470746B94518BF6FF0FA
:202B2C0001007ED128465546394605F1680290470198314605F0C2FD002818BF012070D155
:202B4C000298314605F0BAFD002818BF022068D103980199A84704980299A8470098816887
:202B6C000598A847324B0399059A20469946C847012802D1BD0066590EB1032051E02046C0
:202B8C000021424603F02CF90499059A2046C847012801D166590EB1042042E0264B254D15
:202BAC00079803991E462A46B047089804992A46B047079909980A46B0470A980999079AF2
:202BCC00B0471E4D0B9807992A46B04720460021282203F005F91A4B0A990B9A2046994629
:202BEC00C847203520462A460146C847089958460A46B04706980021424603F0F1F8FDB2E1
:202C0C005846002D0CBF0122FAB20021635C455CAB4218BF052004D1491C521EC9B2F5D1EE
:202C2C0000200DB0BDE8F08F484F0020355A01105D5D011020100020815F0110349300005D
:202C4C0051650110444F00202DE9F843814606F01FF9002100B901216B4E30680028FCD087
:202C6C006C4D01242D1DEF6A346009B106F016F9DFF89881C7F3072008F1BC01086006F08F
:202C8C0007F9002100B9214630680028FCD02F68346009B106F002F9C7F38440C8F8C00087
:202CAC0006F0F6F80146002001B92046014630680028FCD0ED69346009B106F0EFF8C5F391
:202CCC008120C8F8D000B9F5C061C8F8B81000F0968098F8D80068B9C8F8D410D8F8C0009D
:202CEC00C8F8C800D8F8BC70C8F8C470D8F8D060C8F8CC60D8F8D410D8F8BC60002954BF88
:202D0C0002206FF00100454605F1C8031A6801EB41014018411000EB917002EBA0021A608B
:202D2C00D5F8C810C5F8C46000291CDD1E293DDDD5F8CC0030B93429B4BF15391E21C5F8E2
:202D4C00C81025E02A29BABFD5F8C8000B381E20C5F8C800D5F8C4003F28B4BF401C3F20FD
:202D6C00C5F8C4001FE0D5F8CC00032812D011F10B0FC6BFD5F8C8000B30201CC5F8C800EF
:202D8C00D5F8C4000028CCBF401E0020C5F8C400032009E011F1150FC6BFD5F8C800153053
:202DAC00201CC5F8C8000020C5F8CC00B5F8C400174E30214FF47F4208230090304604F04D
:202DCC0003F9009404214FF400321123304604F0FBF8B5F8C80004214FF4F8021223009090
:202DEC00304604F0F1F8B5F8CC0020214FF440620A230090304604F0E7F8BDE8F88300208F
:202E0C0088F8D800BDE8F88300800C40E00B002000A00C4000A00C402DE9F04FADF1840DFB
:202E2C0001F0DCF804F0ACF80026012804D105F0EFFD022808BF01265F490868C0F3815070
:202E4C00012806D151F80C0C0127010E07FA01F006435A48614F007807F12C00036804F046
:202E6C008FF803F07F03012804D105F0D1FD022808BF5B1C524D2B602C463BB1FF2104F184
:202E8C0040001F467F1E00F8011BFBD14D4800684FF0000900F0FF01FE291BD0DFF824C101
:202EAC0000F0FF0749460122FF2F0CD0BB427FD902FA07F73E427BD100F0FF0047EA090907
:202ECC00201880F840105CF8040F491C00F0FF07FE2FE9D1092002F033F83A48002124220E
:202EEC000823606017A806F021F94FF0010804F1240017AA8DF87480414606F013F923685D
:202F0C0043B3002794354FF0040BBA4608FA07F0064219D119EA000F04BF07F0FF0141F445
:202F2C00C04105D0E019274990F8400051F82010254801F057FEF8B24FF0FF3105F034FC14
:202F4C002368C5F800A001E0C5F800B07F1C2D1D9F42DBD301A800213022082306F0DEF8A8
:202F6C000025FF20102101AB0990184A009504F1080006F0CFF80DA828220823294606F04B
:202F8C00C5F804F160000DAA1395114914952B4606F0B8F80F4951F80D0C20F4F85040F450
:202FAC00005041F80D0C4746C1F8FF7F0A4E376021B0BDE8F08FC046B43F00509A1D00209B
:202FCC00E41A0020B4930000007FC767D1870000397100000D30094008000940181300507F
:202FEC002DE9F04F6C4CE2680746880FADF1140DC0F0C2805068406808B18047E2685168F6
:20300C005F4E886808B9CD687DB13568002DFCD00022326010B18047E0684168C86800B13F
:20302C0080475E48503805F089F94FF00008C6F80080544846F81C0C534805F0F7FE40F6D6
:20304C000A09A4F834906379A4F83680BD6894F84000C34604F1340A00F0F00084F84000FA
:20306C00012BC4F838B094F84100A5F8028000F0F00040F0010084F8410001D17B7C93B1AD
:20308C00B8680088A9F10801814205D0298B4FF60F400840288304E0298A4FF60F40084093
:2030AC00288287F811803948016883680193C368406B00911022694620F0784040F08050D1
:2030CC0003903348029302F060FA494600E01D466B6813B118888142F9D1C5F804A0687B1B
:2030EC0000F0F000687304F1200005F092FF80680088A9F10701814220D0491C81421DD094
:20310C003B8CEBB197F82C0097F82D30C7F824B000F0F00087F82C0003F0F00040F0010067
:20312C0087F82D0007F12002A2639AF80D00A7F8228000F0F0008AF80D0001E0C4F8148038
:20314C0030680028FCD0C6F80080012005F01EFB012808D0687B00F0F00040F0010068739A
:20316C000C4805F063FEB9680A8A4FF6FF3010400882B86846F81C0C05B0BDE8F08FC04631
:20318C001C10044001010E04D12100004C13005018000021F5660000B8090020510007062B
:2031AC002DE9F84F994692468B46064605F0D6FF604C0090B4F93210B4F930000AAF401AED
:2031CC0040F6F8710140082980F29E80B4F9300004F59475401C6FF31F3020860820B4F9DB
:2031EC003080EB7F33F07F0304D0401E05F12005F7D1002506F1700005F040FAC5F808B0BF
:20320C0085F81EA0C5F80490A5F81C804A48EE6097E80C00202100271940104005F1100358
:20322C0083E8030004F12000EF770368002B5ED1294604F029FC00285FD0A6F8B880E87FB8
:20324C0040F08000E87796F8BA00012804BF86F8BA70A771607A40B1607830B10120A072A8
:20326C006772A7712079401C2071009805F072FF606A00285BD16078002834D1E079012828
:20328C0055D005F06BFF0646207A40BBA86804F095F92B49294AE36809681060B0B1DD6872
:2032AC001068401BB0FBF1F0012898BF012104D9DB681068C01AB0FBF1F19834204605F0DB
:2032CC001DFF204605F016FF30462EE0304605F041FF04F1BC00042105F022FC27E01949D5
:2032EC0001200870F0E7192005F000FD1FE004F12000294604F0C8FB48B9B4F9300000F619
:20330C00FF706FF31F3020866FF001080CE0A6F8B880E87F40F08000E87796F8BA000128CA
:20332C0004BF86F8BA70A771009805F013FF4046BDE8F88FB8090020F1EFFF9F881D002089
:20334C00A8950000841D00202DE9F04F0746ADF1140D0393002F02920E9801910F9C049032
:20336C0000F0B580081C00F0B280101C00F0AF80181C00F0AC800498002800F0A880002C33
:20338C0000F0AA80206A002800F0A180564D666A281D0068002E00F09A80A16A05F0A6FE48
:2033AC0040B2002808BF6FF0020700F08C8084F82C002078618800EB80004018216A143001
:2033CC0080B288474749086030B92846406805F089FE4FF0FF3776E08B466088DBF80050C6
:2033EC00217805EB000A608800EB4103EE1823784218AA1802F1040803EB430283188918EC
:20340C00EB1840182D18204603F096FD2078C01C8010CAF800002078C01C8010C8F800008A
:20342C0020780836C01C80103060207803F10C09C01C8010C9F8000020781035C01C801097
:20344C002860227839460AF1040002F09EF82278019908F1040002F098F822780299301D03
:20346C0002F093F82378204641463246FFF7FCFA071C12D100955046414632464B4605F021
:20348C002DFE47B22278039809F1040102F07DF822780498291D02F078F822786188DBF82D
:2034AC00000002EB82025218002102F099FC616ADBF8000088470C48406805F013FEF8B264
:2034CC00992808BF002784F82C70384606E01CB16FF0010084F82C006FF0010005B0BDE826
:2034EC00F08FC046444F0020181000202DE9F041654C0746A0690D46ADF1180D28B94FF0BC
:20350C000040002103F0F4FCA061002100918846CDF80480CDF808803AA3CDF80C800A46C6
:20352C00CDF8108004F082FF38463AA3801E04D0801E4CD0401E2BD00BE0A069012D14BFE0
:20354C0037A63CA645460095019502950395049546E0CDF8008045460195029503950495CE
:20356C00A0694146424604F061FF009542460192029203920492A06934A3022104F056FF18
:20358C0001208DF815009DF815000028FBD136E0CDF8008045460195029503950495A06979
:2035AC004146424604F042FF009542460192029203920492A0692BA3022104F037FF012007
:2035CC008DF814009DF814000028FBD117E0CDF80080454601950295039526A60495A069AF
:2035EC004146424604F022FF009542460192029203920492A0690221334604F017FF06B0C7
:20360C00BDE8F0813E3E3E535441434B20415353455254002A2A2A4552524F522A2A2A00E0
:20362C003E3E20494E5445524E414C204552524F522100C03E3E20494E5445524E414C20E1
:20364C004657204552524F522100C0463E3E2044454641554C54205350494E4C4F434B21AB
:20366C0000C046C03E3E204943414C4C2041424F525421003E3E204F5554204F46204D45C3
:20368C004D4F52592100C046080200202DE9F04304466668A7680D46ADF1340D05F05EFD94
:2036AC003178012903D105F055FD0020A9E04FF0010886F8008005F04DFD28787070687882
:2036CC00B07068687060A868B060E868F06028693061287D3075687D7075A87DB075A869CD
:2036EC00B061287F3077687F7077A87FB0774FF00009C6F82090C6F830904D4675627563CD
:20370C00B562B56386F82C50102386F83C3086F82D5086F83D50786801F012FC2046FCF719
:20372C0087FC204601F0CCFF70B937480068C16838688847786801F099FB05F00FFD357025
:20374C0005F008FD2C465BE001A829463022082305F0E4FC0694387BCDF800902B4A09909C
:20376C00B96801AB06F1800005F0D4FC01A829462822082305F0CAFC05942549386901AA99
:20378C002B46079006F19C0005F0BCFC01A829462422082305F0CAFC8DF81C80B07838B957
:2037AC0006F1D000294601AA05F0BCFC19483061707838B906F1EC00294601AA05F0B2FC04
:2037CC001548F06001A829462422082305F082FC0695ADF814501149079406F584700A2280
:2037EC0001AB05F073FCB969FA6906F1400005F04EFA0B4A06F16C000421234604F0C6FDB7
:20380C0020460DB0BDE8F083D001001029430000A17700007F8F0000778F000091580000FF
:20382C00098D00002DE9FC415E4C574D574EDFF860815A4F94F8E410481E0B2861D8DFE826
:20384C0000F07B2C43062343062343067664042907D001220A2945F8212C14BF02200320CE
:20386C0004E02021012045F8211C024684F8E200002045F8390C0827C5F8FF7FC5F8F37F9B
:20388C0045F8392CBDE8FC81052914BF09200620002584F8E400356070E094F8E1700120A0
:2038AC00383D002FC5F81B0004BF0620002102D00021F160032084F8E400032045F8010C42
:2038CC0031603068800859D294F8E400012503280DD00021404660220523009103F074FB1E
:2038EC0094F8E400062814BF0A200720D1E702200090002160220523404603F065FB0420C8
:20390C00C7E705F0DFFBBDE8FC812249002622480E60012505600E2001F0A8FA022004F031
:20392C00C1FA84F8E45084F8E360BDE8FC81002038600C2578601FE01948006800680146F7
:20394C00202088472C3D41F61D560F2000214FF4C072072345F8010C4046C5F80360022533
:20396C00009503F031FB404600214FF4C072072303F0AAFC0120386084F8E45004F17800D2
:20398C0005F0B8FBBDE8FC8139400C4038600C4000A00C402C500C4004800C4034600C4044
:2039AC00A0010010E00B00202DE9F8435C4C04F1200005F02EFB15460E46009005F0CEFB16
:2039CC0005F001078146B6F1FF3F0CD1606A20B9B4F93200401C06B202E0606AB0F91C60EE
:2039EC00002084F85F00304604F012FC0326002800F08A80616ADFF81C81814258D0009F34
:203A0C00B8422ED03FB100990A68904209D0096800290091F7D1832E41D0484605F09AFB2F
:203A2C003DE004F1980004F029FE00980168AA0802D20A680260084600220260009100985F
:203A4C0018B9484605F086FB28E0C17F41F00401C177684605F00CF80146404604F014F85B
:203A6C00EDE704F1980004F009FEA8083ABF206A006800202062484605F06CFB0099C87FD7
:203A8C0040F00400C877684604F0F2FF0146404603F0FAFF009808B1A808EFD28326E07997
:203AAC00012834D004F1BC00022105F039F82EE0A90803D3216A009100262662C27F012111
:203ACC00B9401143C17705F03DFB0446002F14BF1148124804F032FC484605F03BFBA8089E
:203AEC0001D3009820B9204605F028FB83260EE0C17F41F00401C177684604F0B9FF014611
:203B0C00404603F0C1FFECE7484605F023FB3046BDE8F883E409002001000204010001043C
:203B2C00B8090020F8B5414C201D0368B3F1FF3F08BF002303F024FA002876D13C4E206858
:203B4C003468070F04F0FF04802C28BF002403F017FA4FF0FF3578B1401E07D0401E01289D
:203B6C0002D9801E13D014E08FB112E0381C5CD0801E0ED114340BE03846401E55D0801EE8
:203B8C0053D0001F51D0401E03D1163400E00A3465B2162D49DB274827490025012705600D
:203BAC00264E0F60264C376020680028FCD1274A161D2449244F306820F00300014338687D
:203BCC00C0080CD2106810F0030F0AD041F003003060106800F003000328FAD101E041F098
:203BEC0001011B483160006820B11A4800681846FDF722FF184819490560194F0A686FF3EA
:203C0C005B4247EA0200086016490868C0F30130012806D10A681448104040F400320A60BF
:203C2C00086020680028FCD1F8BDFEE718130050A0100050840460425C600C4008220443DB
:203C4C000C00684204000020B03F00500040034080012843000120438C21084048200340CC
:203C6C000000390104000940FFFFFCFC2DE9F84F5FEA00091C46924600917DD0081C7BD085
:203C8C00BAF1000F78D0002C7BD0206A002873D03F4D616A281D006800296DD0A16A05F040
:203CAC0025FA40B2002808BF6FF002055FD084F82C002078618800EB40004018216A0C30F0
:203CCC0080B288473149AB46086030B9DBF8040005F008FA4FF0FF3549E088466388608810
:203CEC002178D8F800605A183518B71803EB41003618204603F020F92078C01C80102860E6
:203D0C0020783F1DC01C8010386020780836C01C8010306022784946281D01F036FC2846CE
:203D2C003A463346014605F0C9F945B2227800983B1D194601F029FC22785046311D01F01B
:203D4C0024FC22786188D8F8000002EB42025218002102F045F8616AD8F800008847DBF8BC
:203D6C00040005F0BFF9E8B2992808BF002584F82C502846BDE8F88F1CB16FF0010084F804
:203D8C002C006FF00100BDE8F88FC046444F0020181000202DE9F04F0120ADF13C0DADF85C
:203DAC001A000826ADF8186006A804F003F800253F4C8DF834509DF81C006070089860605B
:203DCC00304604F0D7FB071C0CD00121122205F018F804F0DFFB0DA90123364A0091394609
:203DEC0003F082FC9DF8340004F1160210212070022003F07DFE04F126020320102103F0BB
:203E0C0077FE042004F10C02014603F071FE4FF0090B4FF0030A4FF6FF770A20ADF80A001E
:203E2C00ADF808604FF0FF33039302A803F0C2FF0028F2D10C95ADF82460ADF826B009A823
:203E4C0003F0B8FFDDF82C800028BDF828209DF82A10CDF83080E0D1102A4FF0010917D1A6
:203E6C006078884214D1404601888F4208D00178D02902D100F022F800E04846814607E08C
:203E8C004088C00B04D30C4A0420014603F04AFE0C980028C1D0B9F1000FBED0ADF81060F7
:203EAC00ADF812A0CDF8148004A803F083FFB4E730070020F38D00003C0700202DE9FF41FA
:203ECC000446DFF81481A078002860D0401F44D0401E35D0801F20D0401F6ED14546E81C1E
:203EEC000078012803D0002867D100200CE0E088ADF802002789ADF804706689ADF8066004
:203F0C00A589ADF808500120A188ADF800108DF80A00684604F090FF4FE0A688257B0C2082
:203F2C0004F028FB071C48D00121162204F069FF3E81BD7204F02EFB394604F027F93CE0B3
:203F4C00A5880A2004F016FB002836D00121152204F057FF07460581ECE7607868BBE67829
:203F6C006589142004F006FB071C26D00121142204F047FF3E72201DF8603D820822BA7417
:203F8C0004F008FB134A394603F090FB15E0607898B945460220102105F1160203F0C2FD08
:203FAC000320102105F1260203F0BCFDE01C016805F1100739608088B88045460835286834
:203FCC0020B1016811B12046884700E001200090BDE8FF81C98D0000300700202DE9F041FA
:203FEC00444C94F8E700ADF1280D00286FD1394F387B01250021242284F8E7507E6884F89A
:20400C00E6000823C4F80C6101A805F063F8002604F10C00069601ABADF814602E490796C5
:20402C00324605F053F82D4904F1300001AB324605F04CF82A4904F1540001AB324605F0EF
:20404C0045F8B868014628468847DFF89C8025487B7B0078D8F80410C1F381571BB1032F37
:20406C0003D184F8E150032F16D0022F14D0012F26D103201D4C009031464FF040521C23BC
:20408C00204602F0A1FF009531464FF400720923204602F099FF13E0022003F01BFF032FEB
:2040AC000CBF4FF47A7142F21071114800685434B1FBF0F1204605F021F8204605F01AF88F
:2040CC00D8F80000C00802D2304603F003FF0AB0BDE8F081489500005F5E0000495A0000F0
:2040EC00ED5C00009A1D0020B03F005000A00C40A8950000E00B00202DE9FC410746BE685B
:20410C0033687D68986B20F4FA609863AC6B44B13168886B40F4FA6088634FF0FF30BDE883
:20412C00FC81AA6329630024EC776C630CE09DF80000296B08706B6B286BAA6B401C286315
:20414C00581C6863501EA863A86B90B93168886B40F4FA6088636A6B6878296B0128A1EB3C
:20416C000201296303D1EB68384698476A6B144646E005F14000694603F0E6F80028D6D542
:20418C0004F0ECFF204F8046387820B9022003F0A1FE01203870404604F0DCFF1B490868D0
:2041AC0040F4007008603168886B40F4FA6088636878D8B9696805F1EC0004F097FF90B9EB
:2041CC00AC6304F0CBFF0646387818B1022003F069FE3C70304604F0BDFF1027696B286B55
:2041EC00EF77401A2863686BBDE8FC8195F82D0030B1686B20B1AC6305F19C0004F05AFF46
:20420C002046BDE8FC81C046981D002030100040F8B504F015FC3F4E3D4F0446A00822D3FD
:20422C00796A01B33D46002068628A69086906F108032040104340F0020088610A69186847
:20424C009043186001F1100090E80C0030681A1C9043306005F12C0003F016FC022105F110
:20426C00BC0004F05DFC786AA10814D200F110020CCA002122400B4008BF002A0BD00169DB
:20428C0085690C40B8622C434FF48041846107F1BC0004F045FC786A002837D107F120044F
:2042AC00204604F0B6FE051C30D0F868E968884226D1A86803F082F917490860E0B906F17B
:2042CC00080128690A6810430860326805F1100393E80300081C1043306000233361A8681C
:2042EC0046F80C0C06F1100000680028FAD0204604F0BEFB7D62F8BD086802F013F8F8BD32
:20430C0007F1BC004FF4805104F00AFCF8BDC046B80900200C100440881D00202DE9F843BD
:20432C008146D9F808703868066CD9F8045046646A6CAB6CA86B16F4F06F0146A2EB030838
:20434C002AD1F00911D270095DD301B395F83C40641EA14298BF0C1C4846214603F088F9C7
:20436C00A86B001BA8630DD04DE081B1484603F07FF995F82D10A86311B9002843D101E007
:20438C000020A86305F19C0004F094FE3BE04846414603F0FBFB36E0F20A19D24FF0000871
:2043AC00444602E0A86B401EA86340B34846012103F05EF93868446814F00F04C0F804807D
:2043CC00F0D0286B401E2863686B401E686316E0386844680022202904F00F044260CCBFB8
:2043EC0020270F1C4846394603F042F9C7F12007B845C8BFB8464846414603F0C7FBEC7776
:20440C00484601F05BFFB0090BD3A96A49B10F46484603F013FAA86218B94846391D02F07F
:20442C0035FCBDE8F8832DE9F0430746ADF11C0D04F03CFE03F0EEFC4FF000090646CDF85E
:20444C000C9004F04FFD30F0010002D00398B04202D16FF0040066E078684C4658B1B0F15C
:20446C00FF3F05D004A903F0BDFC30B1804659E04FF0FF3000E02046049004F013FE049DF6
:20448C004FF001082D1802E00A463BE004937068049904F02BFE00282DD0684602F032FA1C
:2044AC00D8B99DF8040005A903F034FA88B9BB68BDF814009DF80610029A984748B1BDF8F6
:2044CC0014009DF80650B881029BBD73C8463B6111E0029903A803F02DFE0498641CB0F10F
:2044EC00FF3FD4D00028D2D004F0DCFD2B1A02D004989842CAD2039F04F0C5F906F10805B6
:20450C0047B13A4652F80C1C0029BDD1296842F80C1C2F6004F027FB24B1706804F0E2FDD6
:20452C00641EFAD1404607B0BDE8F0832DE9F04707467D68D7F8089090460E4604F00EFEBD
:20454C008246A86A002864D105F5847004F096F80024EC772E6250466C6204F0FBFD04F04D
:20456C00FDFD2F4E3378824623B9022003F0B2FC01203070504604F0EDFD2A49086840F45A
:20458C00807008603846414603F058F9A862C0B93846414602F07AFBA878D0B9A96805F1CF
:2045AC00D00004F0A3FDE8B9AC621020E8774946284600F057FE04F0D1FD8246307840B3E6
:2045CC0023E0D9F80010886B40F020008863A87810B12046BDE8F087A96805F1D00004F08F
:2045EC0085FD10B1686ABDE8F0873846414602F04DFB1020AC624946E877284600F032FE85
:20460C0004F0ACFD8246307818B1022003F04AFC3470504604F09EFD4FF0FF30BDE8F0870A
:20462C00991D0020301000402DE9FC4191EA03084CBF4FF000484FF000084FEAC32545EA16
:20464C0052554FEAC2264FEA43077F0D11BF45F0004500210020BDE8FC815FF4E06E1EF11A
:20466C00FF0E774555D04FEAC12343EA50534FEAC0224FEA4104640D11BF43F000430021E2
:20468C000020BDE8FC81744543D0E419A3FB0501A3FB06E7A2FB06631EEB030E57F1000765
:2046AC0051F10001A2FB05631EEB060E57F1000751F10001FF1851F10001C01951F1000181
:2046CC004CBF4FF4806E4FF4007E10EB0E0051F1000148BF641C01D4400049415FF4407755
:2046EC00FF37E41BDEBF00210020BDE8FC8117F58067BC420DD24FEAD02040EA41504FEA8C
:20470C0041014FEA113141EA045141EA0801BDE8FC810020FF21C900C91D090551EA0801B9
:20472C00BDE8FC81F8B5364C0D46A80846D2E80865D304F1200004F06CFC00280EBFE0682B
:20474C00C068E06041682F4A09781160416812680978914207D087692FB16FF0FF01002232
:20476C004FF00073B847022003F0B4FB112000F0E7FB0120E071E168087C10B160790128B3
:20478C0003D00E2000F0DCFBE16849681E488F680FB9CF681FB10021C1611C4F07601C4AA4
:2047AC0040F2FF711160002787611A4941611A4804F03CFB192004F071FCF8BD04F12C06C3
:2047CC00304604F026FC00F029F8304604F021FC25F0020504F1200158B9E80803D2084653
:2047EC0004F017FC58B104F1980003F047FF042101E045F0020104F1BC0004F091F9F8BDB5
:20480C00B8090020D021084000100440510007060000046002000040ED2F0000F8B5071C2E
:20482C0072D0B86840F6030120264A1C02E04068761EF6B260B15EB10388994218BF9A4225
:20484C00F5D1F9681CC820311CC149C881E849007868BA690025BD61C8B1F87F42F00202E4
:20486C00002300F00700401E09D0401E04D0801E08D14FF0805304E04FF0804301E04FF01A
:20488C0000532A467C68F868B7F91C10A04704F065FC1E4C0646B4F93200401C6FF31F304B
:2048AC00608604F12C000168CD7704F0E1F8304604F050FCF868B0F9B810B4F93220914212
:2048CC0022D1217801291FD090F8BA60BEB90668AEB1E2680E4912680968B2F1FF3F13D0F1
:2048EC00B6FBF1F2012A8CBFB6FBF1F10121703004F004FCF868703004F0FCFBF8BD80F841
:20490C00BA50284601F00EFDF8BDC046B8090020A89500002DE9F04390460A68D8F800409D
:20492C001678814600271D463846ADF1140D531C242E0B6053D112F8016F5B1C4C2E0B6029
:20494C000ED1AA68E41C24F00304241D54F8040C494601F025FF2968EF600127091A29604A
:20496C00462E1AD1E41C24F00304241D54F8040CE41C029024F00304241D54F8040C0027A3
:20498C0049460390AA68ADF8047001A800F0AEFD2968EF600127091A2960532E1FD1E41C55
:2049AC0024F00304241D54F8040CE861C8F80040288B0090A968EA69D9F800004346FDF7F5
:2049CC0063FAD9F80040002714B10119C9F80010D8F800402968EF60091A01272960662E2E
:2049EC000AD12B8B23B9E41D24F00704083403E0E41C24F00304241D1FB9E9690E700127D3
:204A0C00EF60C8F8004005B0BDE8F0832DE9F041334832490860FEF7FFF94FF08055D5F8FB
:204A2C00D801304C036801210A4620469847D5F8D80142680121204690472E4C0025032082
:204A4C0004F1180141F80C5F401E8D60FAD1241F062004F14C010A46401E22F80C5BFBD1DC
:204A6C000820214F0880214A8F602149121D22F00303CF1A6762E3612362E66904F1200818
:204A8C00944618460A4601E026F8025BB142FBD8B910E82700EB810121F8045C4FF6FC76EB
:204AAC001F8006EA0C0300F1E807D21A676106EA0201EC39A0F8E810284601F091F8A06127
:204ACC00D8F80000606101F059FB02F0FFFC02F0DBFC04F0DFFA2846BDE8F0811C110020A0
:204AEC00F934000000400340E18500009B1D0020A83D0020F40C0020F0B5ADF1340DFFF71D
:204B0C006DFA304908682822082340F00200086001A8002104F0FAFA2B4E2C49052400233E
:204B2C0001AA079406F1BC0004F0ECFA00213022082301A804F0F2FA0025FF271921244A7C
:204B4C00ADF81C5001AB099706F16000009504F0E1FA2822082301A8294604F0D7FA1D4979
:204B6C00079406F1F00001AA2B4604F0CBFA01A829463022082304F0D1FA0124ADF81C4058
:204B8C00099706F17C001A2101AB134A009504F0C1FA12492A4606F19800134604F096FA37
:204BAC000F4804F043F986F85F507571F57135727572B5727561B4714FF6FF70A6F85C008B
:204BCC000DB0F0BD00200940B8090020F58A0000CD840000695D0000B969000011840000C8
:204BEC00314700002DE9F0470D4606465FFA85FA280824BF2E4845402E494FEA8A03C85802
:204C0C0085EA00023240C2F300672B4A06EA0504B043224006F4E0240243B4F5E02F01D1F9
:204C2C00500E14D306F4E020074310D002F4E027B7F5A02707D0B7F5803704BF22F400324A
:204C4C0042F4A02203E022F4803242F4C022DFF86C80CA5008F1D00739680122002002FA00
:204C6C000AF40C4218BF101C5FEA000906D1F00D04D34146C5F3805001F80A00300E0BD3AE
:204C8C0004F06CFA290E34BF0021211C3A68A2431143396004F05EFAB9F1000F06D0F00DDA
:204CAC0004D34046C5F3805100F80A10BDE8F087006000A000100840FF7F077F0020024016
:204CCC002DE9F04105463148AF686E681CC88846ADF1480D69461CC11CC81CC10DC881E8A0
:204CEC000D007868002424220823069021468DF8014009A804F01AFA012109AA301D8DF803
:204D0C003C1004F00FFA98F80000401E08D0401E04D0401E14BF201C11A002E012A000E0B4
:204D2C0013A030621A483A680068904209D91948910001EBC2014258D268401869469047AF
:204D4C0000E020463060002808BF251C03D00AA1122204F0FDF8284612B0BDE8F081C0465A
:204D6C001B5B324B00C046C01B5B304B00C046C01B5B314B00C046C01B631B5B324A1B5B19
:204D8C003130721B5B31313B314800C03094000018110020E4940000F8B504F079F801F060
:204DAC0059FA04F081F8044604F00C000C284FD0E0081ED203F058FA274E376805460120ED
:204DCC00014603F0A8FC31686943884211D2234C8220B0FBF7F0291A204604F08FF92046C9
:204DEC0004F088F90120FDF72DFB204603F046FC2FE020092CD21A4803F0D2FF0428FAD008
:204E0C001849620906D228B10A460846016821F0010104E00A460846016841F00101016070
:204E2C00D2F898004FF0805440F00300C2F89800D4F8B8018069014620208847D4F8B80123
:204E4C00094C806B2168804701202060206800E030BF04F023F8F8BDA8950000EC0B0020A6
:204E6C00004003408C2108402C2009402DE9F843044604F073F981462D48021992F8ED1040
:204E8C00491ECFB2002F82F8ED704BD12B4D05EB84052E78698836F07F0788461AD1F10915
:204EAC0011D24FF08054D4F8B801806901464046884704F5DC742068406B014640468847CE
:204ECC000228F8D121E000EB8800D0F80011002088471AE04FF08054D4F8B801006A014654
:204EEC0040468847D4F8B801806A014640468847D4F8B801006B01464046884701210D4A41
:204F0C000D48116001688908FCD306F03F003F2801D0FFF7ABFF687800F03F003F2801D0A2
:204F2C00FFF7A4FF484604F015F9BDE8F883C046E00B0020282008602820084054920000E5
:204F4C002DE9F041064604F009F92D4D8046A91991F8ED00421C002881F8ED204AD1294CA8
:204F6C0004EB8604277807F03F003F2801D0FFF7E7FF607800F03F003F2801D0FFF7E0FFAF
:204F8C00668837F07F001AD1F80911D24FF08054D4F8B801406901463046884704F5DC748C
:204FAC002068406B0146304688470128F8D121E005EB8605D5F80011012088471AE04FF0B1
:204FCC008054D4F8B801C069014630468847D4F8B801406A014630468847D4F8B801C06A4D
:204FEC000146304688470121074A0848116001688908FCD3404604F0ADF8BDE8F081C046E1
:20500C00E00B00205492000028200860282008402DE9F041314C0546A0781F46164688469D
:20502C00ADF1380D012803D0FFF766FD0120A070B8F1000F09D0C5F8048036B1AE6004F040
:20504C008DF8E17819B104F085F800203FE0491CC9B2E17004F07EF801243FB91D494CC9B9
:20506C0009A84CC006C909AF80E80600386828607868E860387C2874B8686C746861788A07
:20508C006882F86800B1A8610021A02205F1200000F0A6FE684600212422082304F046F801
:2050AC008DF8184005F1380000216A4604F03AF8684600212422082304F00CF806490695C0
:2050CC0005F1700000226B4604F000F828460EB0BDE8F081FC940000AD8F0000B8090020B0
:2050EC00F8B5304D0C460646A0083CD2A00F51D3294F3868294C20F0020040F40070386078
:20510C00032144F8041C41F23003A360012121605022A26021604FF4CA60A06021602048AC
:20512C0044F80C1C03F082FEA81C0078012803D006F1380003F0D6FF002402203C6002F089
:20514C00B1FE1120FFF792FE307C10B90E20FFF78DFE2846144A047211784472D1B1147032
:20516C00BC30042114E005F12C06304603F051FFFFF754FB304603F04CFF30B924F0020441
:20518C00A00F07D34FF0005100E0022105F1BC0003F0C6FCF8BDC046000004600C410440D0
:2051AC0031470000B8090020841D00202DE9F0430F46014648688968CE68B1F810808968E3
:2051CC0099461446ADF1140D0546001D03F08EFF00283AD0FF2F10D0641CA8F102017B1CF0
:2051EC0030461BA2009403F075FB2B6A04462BB119683019241D016000E000240D980E9B00
:20520C00A8EB040100900F9A10980193891E0C9B02924A460390301903F05CFBFF2F044467
:20522C0006D10D20671C0A2330557C1CF35504E00BA109883019A41C01802868314622462F
:20524C0003F086FE281D03F04DFF05B0BDE8F0831B371B5B3130721B5B25643B25644800D4
:20526C001B38000070B50D4629680646886B20F02000886324482C7D0168A14212D900EB35
:20528C008400736ED0F894108B420BD103F066FF1C4B1A680121A1408A431143196003F0B7
:2052AC0059FF2C7D706E2146012202F057FA706E297D002202F080FF706EA97D002202F007
:2052CC007BFFB078012806D006F1D0004FF0FF3103F00CFF03E0296888690009FCD2706ED3
:2052EC00297D102202F068FFA97D0020FF2902D0EA7DFF2A00D118B1706E112202F05CFFA9
:20530C0070BDC046D0200240E41A00202DE9FF410D4614464768244986680A6801A8026074
:20532C008A8889798280A5428171A8BF2C1CB168381D804603F0DAFE48B300200090318A5E
:20534C00F0686D1C13A22B4603F0C4FAA11CA9420ED9491B328A121A022A09D9F26801AB9A
:20536C001C688218801D9B881460491E9380F1D1F1680CA2128841180A803B68F168851C72
:20538C002A46184603F0E4FD404603F0ABFE0090BDE8FF811B371B5B3130721B5B25643BB3
:2053AC00256448001B3800C0909500002DE9F04114460F4603F0D2FE1FFA80F81F480068BF
:2053CC00007808B903F044FAE7B138684FF0FF3518B140280AD3810B08D17E681EB1310A49
:2053EC0004D0310E02D1B9680F2908D93DB10CB1284620700820FFF739FD002418E0796887
:20540C00BA6803E04FF480700122014602F032FD0B49012008600B4908684008FCD30A48B3
:20542C0000684168022088470CB1002121700446404603F08FFE2046BDE8F0815895000036
:20544C00A802504208800240CC010010F0B520480127F84201D001F0FFFC204D204F214EE6
:20546C00BD4206D203CD0478A4003459401CA047F6E71D48002800D08047164D164FBD42C1
:20548C0002D210CDA047FAE7F0BD03251BE0416808300A1C2A400BD11A1C2A40AB4305D007
:2054AC00046804300C600431043BF9D1131C05D0047801300C700131013BF9D1021C2A40A9
:2054CC0001D0A84304300368002BE0D17047C046FFFFFFFF0000000000000000A098000098
:2054EC00009900005C98000059C501102DE9F843002A894607464CBF47F6FF75151C002F31
:20550C0008BF002033D03888002808BF002403D02A4600F001FA0446281B002826DD38881C
:20552C0028B1291B484613A201F06AFE0419B868E0B1D7F804802E1BB8F1000F0DD0404621
:20554C0003F07AFB401DB04207DC291B48460AA2434601F055FE04192E1B122E06DBBB68B0
:20556C00291B484606A201F04BFE04192046BDE8F883C0463A2000C0222573222C2000C0C0
:20558C006C696E652025643A2000002A4AD05FEA000C8B071CD1830722D1102A08D370B486
:2055AC00103A78C978C0103AFBD270BC103238D0042A2CD3082A05D30C2A24BF08C908C0A6
:2055CC0008C908C008C908C092072AD0920F22E00B780370491C401C521E22D08B07F7D1E4
:2055EC00C30714D18307D8D0121F12D308C903801B0C4380001D121FF8D20AE008C9037024
:20560C001B0A43701B0A83701B0AC370001D121FF4D2121D05D00B780370491C401C521EF7
:20562C00F9D160467047FEE72DE9F843234D884606464FF0FF3105F12400814603F056FDE1
:20564C0000200CE0FF2909D02A688A4204D905EB8101D1F894700FB1002627E0401CB8F1C5
:20566C00000F03D018F82010FE29EBD10024346074600127B46011E0FF280ED005EB8000EB
:20568C000B787268C0F8946007FA03F0104370600A680949304602F0A5FD641CB8F1000FD8
:2056AC0004D008EB84010878FE28E5D1484603F019FD3046BDE8F883007FC767E41A00203E
:2056CC00B0B5456884682349607DA27DADF1180D40F000400090207D0027FF2A41EA00007D
:2056EC0001904FF0020002D0E27DFF2A00D13FB1E37DA07D1943039140F00040029004201E
:20570C00FE214DF8201005F158006946FFF78CFF6866002808BF381C1AD0617D0F2202F06F
:20572C004BFD686E217D102202F046FDA17D3846FF2902D0E27DFF2A00D140B1686E112251
:20574C0002F03AFD686EE17D122202F035FD012006B0B0BD0000C0A02DE9F8432020EFF371
:20576C00118780F31188214CA068012103F08EFC4FF001094FF0000865692168A4F81C9036
:20578C006A1A2168A4F81E80461B401A904227D387F3118840464519361A4846294603F0F8
:2057AC0071FCB042F7D92021EFF3118781F31188E18B012903D14046294603F063FCB0F194
:2057CC00FF3F06D0A169801B814238BF081C411901E0A069291803F051FCA4F82090256090
:2057EC00A4F81C8087F31188BDE8F88378010020B0B50446A768ADF1280D5FBB0C2000F0D2
:20580C00EFF9071C1DD0684600212422082303F061FC002306976A466168ADF81030184876
:20582C00059303F027FC386070B90820ADF824000C25ADF8265009A802F0BCFA384602F0E7
:20584C0063FC6FF0030018E0E06878602069B860A7600AE003F017F80546386802F00EFFE5
:20586C002069B860284603F07EF93868616803F045FC386803F03EFC00200AB0B0BDC046EC
:20588C00518E00002DE9F04107467868BE68044600F5847002F0F2FE30681C498069096817
:2058AC00C0F3C00008BB03F059FC194D8046287820B1022002F0F6FA00202870404603F08C
:2058CC0049FC3168134D886B20F020008863286820F480702860606A216A091A21622369CD
:2058EC00626A38469847BDE8F0814FF4FA70B0FBF1F1012998BF012104F58474204603F036
:20590C00FDFB204603F0F6FBBDE8F081A8950000991D0020301000409EB513460C461F4A29
:20592C001D4912880988824206DB13A219460346204601F065FC9EBD194A1788814207DB0E
:20594C0002F0ACFE42681946204601F059FC9EBD002F08BF0BA2E9D00094002B48BF47F630
:20596C00FF73104F002101933C6802910E496A46A04702989EBDC0467B6D6F64756C652351
:20598C0025647D007B6D6F64756C652D726F70653A25787D00C046C09E950000C49500006B
:2059AC008A050000C095000001800000F0B5204CE078A769ADF11C0D012804D11D490520AD
:2059CC0001F0E2FC29E00126002504F1E800E670E0226570294600F003FA38460722314613
:2059EC0003F01DFA2A4600920192029203920492A0690BA3314602F019FD02F06FFB8DF826
:205A0C00140004218DF8166003208DF817500A4A8DF8150005A802F007F907B0F0BDC04640
:205A2C00446973636F766572696E672E2E2E00C008020020C58F0000CB8F00002DE99843CA
:205A4C0003F08CFB1F4CDFF87880814604F1E000007850B94446A068014602208847074652
:205A6C00102001F0F9FA2FB320E000F0E1FD002820460FD1144909683222B2FBF1F101B97D
:205A8C00012100F13004204603F038FB204603F031FB0FE044460022A16880F8E020022064
:205AAC0088470746102001F0D7FA1FB1A068014603208847484603F04DFBBDE89883C0462C
:205ACC0048950000E00B0020A89500002DE9F04106467568B46803F041FBA96A39B921684C
:205AEC008969090903D203F035FBBDE8F0810027AF6203F02FFBA17D3846FF2902D0E17D3F
:205B0C00FF2900D118B128462146FFF7ABFB2168886B20F0200088630D49086820F48070E5
:205B2C00086003F01BFB0B4C8046207818B1022002F0B8F92770404603F00CFB686A296A29
:205B4C00091A29622B696A6A30469847BDE8F08130100040991D002070B51E4DAC68064672
:205B6C0002F04AFF4FF47A71001B4843030C02F0D1FB2969401A48BF404240F6B8319B19F5
:205B8C00994210D306280EDAE9688C420BD8286848B1114A091B51438A0C02EB11418842E8
:205BAC0088BF011C08E00D49486840080ED208687D2100F0FF004143C82905D3B1F57A6F86
:205BCC0088BF4FF47A6103E0C82101E04FF4FA61084670BD601D002040420F00AC3F005025
:205BEC00F8B5001D84B214F0030002D0241A241DA4B202F048FE1A4A102C0146576911619A
:205C0C00C8BF9769388800221646C30BDD0319D126B984420ADD3A46012617E01388C3187B
:205C2C009BB29C42138011DC174618469FB1001B80B20428B4BF3C88385344F400443C802F
:205C4C003F1D08E080F40040002680B2C71938880028DAD10027084602F085FF3846F8BD57
:205C6C00F00C0020F8B50E46044603F06BFA0546304602F0CDFA071C03D1284603F05EFA2F
:205C8C0028E0F87F10F0070F1DD114487968884202D079682166786002214FF0E04204F1E3
:205CAC00580080E80600284603F048FA04F138004FF0FF3103F01AFA04F1680700202066C2
:205CCC0097E80300F8BD284603F038FAF87F10F0070FFBD102200021F8BDC046B16E000078
:205CEC001CB5042002F052FD022818D0032816D016480068C0F38150032814BF41F288320A
:205D0C004FF47A721248144C016854342046B2FBF1F103F0F3F9204603F0ECF91CBD03208F
:205D2C000C4C009000214FF040521C23204601F04BF9012000214FF400720923009020468A
:205D4C0001F042F9022002F0ADF81CBDB43F0050A895000000A00C40E00B0020F8B503F062
:205D6C00FDF91C4C0746A06D10F4602F27D0A06D400CC6B2700807D2B00803D2F00828BF47
:205D8C00022602E0012600E00026751D68B200F037FEA36D06F111010120884023EA0001DF
:205DAC003846A16503F0D6F904EB8600C76C4FB1A06C294600224FF00063B84702E038464B
:205DCC0003F0C8F9A06D20B104F1F000002102F0A7FEF8BDB8090020002213460A461946C8
:205DEC0071B510F0030F0BD0002A82BF00F8011BB2F1010210F0030FF6D1002A08BF71BD67
:205E0C0011F0FF0141EA0121042A18D341EA0141082A0FD30E46102A08D30C460D46B2F1DD
:205E2C000F0312F00F0272C0103BFCD812F0080F18BF42C012F0040F18BF40F8041B12F0A9
:205E4C00020F18BF20F8021B12F0010F18BF017071BD704738B5054601201A4C68712879A1
:205E6C00B0B902F010FD2178002904BF6FF00704051C15D0491EC9B2217039B902F073FEF1
:205E8C00606802F0CFF80020687118E0054613E002F0F9FC05462078FF2805D16FF0060416
:205EAC00284602F060FE0BE0401CC0B20128207002D1606802F0CDF8284602F054FE00247E
:205ECC00204638BDA810002070B50646B079F4680628A4F10C042CDA3079062829DA02F0E8
:205EEC00D2FC154DB27991000C3501EBC20169184968E1B102F037FE30792071B07960719B
:205F0C00307AA071B179880000EBC1002818F1684068083002F00EF9B179880000EBC1008C
:205F2C002D186868406803F0DDF8002070BD02F01AFE6FF0020070BD300D002038B519493F
:205F4C001A4C00204822C1F8F30F94F8E200C1F8FF2F20B3012817D0022807D003281ED137
:205F6C0051F8310C00F05EF80B2016E051F8315C2846FCF769FE40F2FF50A84202D8801CA9
:205F8C00A842F1D2082008E051F8310C00F0F2FA054800780028E7D0052084F8E400FDF7B9
:205FAC0041FC38BD39400C4056950000E00B002038B544688568606E02F09EFB2968174819
:205FCC008A6B1040886316480068C168286888476868FEF74BFF04F1800003F047F804F18C
:205FEC009C0003F03FF8A07818B904F1D00003F035F8607818B904F1EC0003F02FF804F564
:20600C00847003F027F803F0A9F80021217003F0A1F804F16C0002F0EDFA38BD0DF8FFFF6A
:20602C00D001001038B51A4CA0F5C060D4F8B810C4F8D4000029B8BF49420028B8BF4042FB
:20604C00814220DAB4F8BC00124D30214FF47F4208230090284600F0B7FFB4F8C0000421FB
:20606C004FF4F80212230090284600F0ADFFB4F8D00020214FF440620A230090284600F04B
:20608C00A3FF012000E0002084F8D80038BDC046E00B002000A00C402DE9F8438146EFF3F1
:2060AC001188202080F31188174D154C134F012605F11C000660A4F114000660F86A016A4D
:2060CC0014208847D9F81000810C14BF000C042020603868026823210020904709480660C4
:2060EC0054F8180C20F4C02040F4803044F8180C2E6088F31188BDE8F883C046840100108F
:20610C001820094080022443000024432DE9F8430024002B16460F468046254606D5002F16
:20612C00C3F1000302D57F42761E2D2599463846494601F069F90CA0405CB7FBF9F7002FC6
:20614C0004F1010408F8010DF1D1A64205DD3021301B401E08F8011DFBD10DB108F8015D9F
:20616C004046BDE8F883C0463031323334353637383961626364656600007047B0B5ADF14B
:20618C00400D02F0E3FF044600213C220823684602F05CFF11484168069181680068049065
:2061AC000F480068002205900E480891694602F049FF071C0DD002F066FB0546384600F079
:2061CC00B3FD30B1284602F0CEFC204602F0B2FF01E000F041FC10B0B0BDC0468891000095
:2061EC00F40C0020E98C000030B5401E4FF00004ADF12C0D0AD0401E04D0401E20D1FDF752
:20620C0011FB1DE000F026FB044619E001A821462422082302F05EFF06940D4DADF8144058
:20622C0009490794012201AB05F1780002F04EFF064A23462C2105F19C00009302F06AFF63
:20624C0020460BB030BDC046C1640000495F0000E00B0020164880B507683FB315498B6801
:20626C0003EA5300C00E21D2134A106880081DD2486880081AD21068096810F0050F4FEA6B
:20628C00114101F0F00101F5E0710AD1B9420DD2190F38BF40F00100D90E38BF40F0040060
:2062AC0003E0B94202D920F00500106080BDC04628500940AC3F005000000940F8B5064613
:2062CC00B06801687568886B20F4FA6088631349086820F40070086002F040FF104C074676
:2062EC00207820B1022001F0DDFD00202070384602F030FF02F032FFA96B11B902F02AFFD1
:20630C00F8BD0021A96302F025FF686B296BEB68091A29636A6B30469847F8BD30100040B1
:20632C00981D0020B0B5074602F018FF154C0546207918B3401EC0B22071F8B904F1BC00EE
:20634C00082102F0EDFBCFB1E068703002F096F9E1680D48CA680068BA1AB2FBF0F2012A7F
:20636C0098BF012103D9C9687F1AB7FBF0F19834204602F0C3FE204602F0BCFE284602F008
:20638C00E9FEB0BDB8090020A8950000F8B5844640F6FF741CF8013B002210E0481B401E3C
:2063AC0010F8015B7F1E01F8015BF9D103E01CF8010B01F8010B521C5B08082AEADA580882
:2063CC00F5D21CF8010B1CF8015B05F00F07FF1CC5F30315122F45EA001508D11CF8016B86
:2063EC00300A24BF1CF8010B60F3DF16F719AC42D4D1F8BDFEB5064614460D46082002F0EE
:20640C00D9F81349CF6900B306803E4685700823042244600746ADF800300C25ADF802204A
:20642C000C6A0195684601F0C5FC58B9029949B18F60204602F002FE16B1304602F052FE78
:20644C000120FEBD384602F0A7FA0020FEBDC04608020020D0B5044602F028FE00F064FC01
:20646C00071C08BF6FF002041FD002F00CFA0146A2880F480023243030F80C6F5EB902805F
:20648C004760A26882602373786820610024084602F069FB09E0964208BF6FF00204F6D0EB
:2064AC005B1C062BE8D300F0D7FA2046D0BDC0460C0D00201648144A144908B5E430007818
:2064CC00801E0A2807D8DFE800F01814100614100614100609C002F0F5FD11E01068800816
:2064EC00FCD250688008FCD20AE008688008FCD306E008688008FCD202E010688008FCD3A6
:20650C00FDF790F908BDC04634600C4038600C40E00B00200246F8B5084611464C682038B2
:20652C0021D0401E1CD0401E18BF6FF001001ED18D6802F013FE0E4E07463068016928685D
:20654C008847B0F1FF3FF8D10025A564606C401EE06425653846A56302F0FCFD2846F8BDFE
:20656C000021084601E00121002084F82D10F8BDD0010010134910B50A684BF2F5214843BD
:20658C00040AC2F38140012806D101F0C3FE00F0F7FF604304EB90540C4901F1E5000078B9
:2065AC0030B90948006820F07F402418640802E0002081F8E50006480460210C41600123B2
:2065CC00836010BDB43F005010200940E00B00203C600C40B0B5044602F084FC30F001000E
:2065EC0008BF6FF004041ED002F060FD054602F04AF901460D480622403030F80C7F6FB19D
:20660C00A388BB4208D1406800680022854208BF0122A260002403E0521EEED14FF0FF34E0
:20662C00084602F0A0FA2046B0BDC046F00C002008B5012002F0AAF801281DD00F4834214B
:20664C000122002300F040FE002808BF002014D00B48006801F0AEFE02F0CEF90A4A936867
:20666C001168D060C01A074BA1EB91014343180C884228BF011C1160012008BD00A00C4060
:20668C008000001040420F00601D002098B5154B1B1D18680004070C21D001F03BFE104940
:2066AC0091F90720824205DD10F1800FB8BF6FF07F00C8718C88BC4210D80A68D3F8D40F3F
:2066CC00801A801C1F2888BF1F203F1B4008C7404FF6FF70E719B84238BF071C8F8098BDD6
:2066EC008C1D002030100940084610B500F0005100F0040008431CD0012002F047F8104C0F
:20670C00012811D00B4801683220B0FBF1F2012A8CBFB0FBF1F101216434204602F0EEFCC8
:20672C00204602F0E7FC10BD034802F07FFB0348046010BDA8950000D1210000001004408F
:20674C00EC0900201549096821280ADC212819D00C380FD00D380FD0001F0FD0C01E0FD0E6
